{
  "_format": "hh-sol-artifact-1",
  "contractName": "RedDiamond",
  "sourceName": "contracts/RedDiamond.sol",
  "abi": [
    {
      "anonymous": false,
      "inputs": [
        {
          "indexed": true,
          "internalType": "address",
          "name": "owner",
          "type": "address"
        },
        {
          "indexed": true,
          "internalType": "address",
          "name": "spender",
          "type": "address"
        },
        {
          "indexed": false,
          "internalType": "uint256",
          "name": "value",
          "type": "uint256"
        }
      ],
      "name": "Approval",
      "type": "event"
    },
    {
      "anonymous": false,
      "inputs": [
        {
          "indexed": false,
          "internalType": "uint8",
          "name": "version",
          "type": "uint8"
        }
      ],
      "name": "Initialized",
      "type": "event"
    },
    {
      "anonymous": false,
      "inputs": [
        {
          "indexed": true,
          "internalType": "address",
          "name": "previousOwner",
          "type": "address"
        },
        {
          "indexed": true,
          "internalType": "address",
          "name": "newOwner",
          "type": "address"
        }
      ],
      "name": "OwnershipTransferred",
      "type": "event"
    },
    {
      "anonymous": false,
      "inputs": [
        {
          "indexed": true,
          "internalType": "address",
          "name": "from",
          "type": "address"
        },
        {
          "indexed": true,
          "internalType": "address",
          "name": "to",
          "type": "address"
        },
        {
          "indexed": false,
          "internalType": "uint256",
          "name": "value",
          "type": "uint256"
        }
      ],
      "name": "Transfer",
      "type": "event"
    },
    {
      "inputs": [
        {
          "internalType": "address",
          "name": "owner",
          "type": "address"
        },
        {
          "internalType": "address",
          "name": "spender",
          "type": "address"
        }
      ],
      "name": "allowance",
      "outputs": [
        {
          "internalType": "uint256",
          "name": "",
          "type": "uint256"
        }
      ],
      "stateMutability": "view",
      "type": "function"
    },
    {
      "inputs": [
        {
          "internalType": "address",
          "name": "spender",
          "type": "address"
        },
        {
          "internalType": "uint256",
          "name": "amount",
          "type": "uint256"
        }
      ],
      "name": "approve",
      "outputs": [
        {
          "internalType": "bool",
          "name": "",
          "type": "bool"
        }
      ],
      "stateMutability": "nonpayable",
      "type": "function"
    },
    {
      "inputs": [
        {
          "internalType": "address",
          "name": "account",
          "type": "address"
        }
      ],
      "name": "balanceOf",
      "outputs": [
        {
          "internalType": "uint256",
          "name": "",
          "type": "uint256"
        }
      ],
      "stateMutability": "view",
      "type": "function"
    },
    {
      "inputs": [
        {
          "internalType": "uint256",
          "name": "amount",
          "type": "uint256"
        }
      ],
      "name": "burn",
      "outputs": [],
      "stateMutability": "nonpayable",
      "type": "function"
    },
    {
      "inputs": [
        {
          "internalType": "address",
          "name": "account",
          "type": "address"
        },
        {
          "internalType": "uint256",
          "name": "amount",
          "type": "uint256"
        }
      ],
      "name": "burnFrom",
      "outputs": [],
      "stateMutability": "nonpayable",
      "type": "function"
    },
    {
      "inputs": [],
      "name": "decimals",
      "outputs": [
        {
          "internalType": "uint8",
          "name": "",
          "type": "uint8"
        }
      ],
      "stateMutability": "view",
      "type": "function"
    },
    {
      "inputs": [
        {
          "internalType": "address",
          "name": "spender",
          "type": "address"
        },
        {
          "internalType": "uint256",
          "name": "subtractedValue",
          "type": "uint256"
        }
      ],
      "name": "decreaseAllowance",
      "outputs": [
        {
          "internalType": "bool",
          "name": "",
          "type": "bool"
        }
      ],
      "stateMutability": "nonpayable",
      "type": "function"
    },
    {
      "inputs": [
        {
          "internalType": "address",
          "name": "spender",
          "type": "address"
        },
        {
          "internalType": "uint256",
          "name": "addedValue",
          "type": "uint256"
        }
      ],
      "name": "increaseAllowance",
      "outputs": [
        {
          "internalType": "bool",
          "name": "",
          "type": "bool"
        }
      ],
      "stateMutability": "nonpayable",
      "type": "function"
    },
    {
      "inputs": [],
      "name": "initialize",
      "outputs": [],
      "stateMutability": "nonpayable",
      "type": "function"
    },
    {
      "inputs": [
        {
          "internalType": "address",
          "name": "to",
          "type": "address"
        },
        {
          "internalType": "uint256",
          "name": "amount",
          "type": "uint256"
        }
      ],
      "name": "mint",
      "outputs": [],
      "stateMutability": "nonpayable",
      "type": "function"
    },
    {
      "inputs": [],
      "name": "name",
      "outputs": [
        {
          "internalType": "string",
          "name": "",
          "type": "string"
        }
      ],
      "stateMutability": "view",
      "type": "function"
    },
    {
      "inputs": [],
      "name": "owner",
      "outputs": [
        {
          "internalType": "address",
          "name": "",
          "type": "address"
        }
      ],
      "stateMutability": "view",
      "type": "function"
    },
    {
      "inputs": [],
      "name": "renounceOwnership",
      "outputs": [],
      "stateMutability": "nonpayable",
      "type": "function"
    },
    {
      "inputs": [],
      "name": "symbol",
      "outputs": [
        {
          "internalType": "string",
          "name": "",
          "type": "string"
        }
      ],
      "stateMutability": "view",
      "type": "function"
    },
    {
      "inputs": [],
      "name": "totalSupply",
      "outputs": [
        {
          "internalType": "uint256",
          "name": "",
          "type": "uint256"
        }
      ],
      "stateMutability": "view",
      "type": "function"
    },
    {
      "inputs": [
        {
          "internalType": "address",
          "name": "to",
          "type": "address"
        },
        {
          "internalType": "uint256",
          "name": "amount",
          "type": "uint256"
        }
      ],
      "name": "transfer",
      "outputs": [
        {
          "internalType": "bool",
          "name": "",
          "type": "bool"
        }
      ],
      "stateMutability": "nonpayable",
      "type": "function"
    },
    {
      "inputs": [
        {
          "internalType": "address",
          "name": "from",
          "type": "address"
        },
        {
          "internalType": "address",
          "name": "to",
          "type": "address"
        },
        {
          "internalType": "uint256",
          "name": "amount",
          "type": "uint256"
        }
      ],
      "name": "transferFrom",
      "outputs": [
        {
          "internalType": "bool",
          "name": "",
          "type": "bool"
        }
      ],
      "stateMutability": "nonpayable",
      "type": "function"
    },
    {
      "inputs": [
        {
          "internalType": "address",
          "name": "newOwner",
          "type": "address"
        }
      ],
      "name": "transferOwnership",
      "outputs": [],
      "stateMutability": "nonpayable",
      "type": "function"
    }
  ],
  "bytecode": "0x608060405234801561001057600080fd5b5061250e806100206000396000f3fe608060405234801561001057600080fd5b50600436106101165760003560e01c8063715018a6116100a257806395d89b411161007157806395d89b41146102bb578063a457c2d7146102d9578063a9059cbb14610309578063dd62ed3e14610339578063f2fde38b1461036957610116565b8063715018a61461026d57806379cc6790146102775780638129fc1c146102935780638da5cb5b1461029d57610116565b8063313ce567116100e9578063313ce567146101b757806339509351146101d557806340c10f191461020557806342966c681461022157806370a082311461023d57610116565b806306fdde031461011b578063095ea7b31461013957806318160ddd1461016957806323b872dd14610187575b600080fd5b610123610385565b604051610130919061151f565b60405180910390f35b610153600480360381019061014e91906115da565b610417565b6040516101609190611635565b60405180910390f35b61017161043a565b60405161017e919061165f565b60405180910390f35b6101a1600480360381019061019c919061167a565b610444565b6040516101ae9190611635565b60405180910390f35b6101bf610473565b6040516101cc91906116e9565b60405180910390f35b6101ef60048036038101906101ea91906115da565b61047c565b6040516101fc9190611635565b60405180910390f35b61021f600480360381019061021a91906115da565b6104b3565b005b61023b60048036038101906102369190611704565b6104c9565b005b61025760048036038101906102529190611731565b6104dd565b604051610264919061165f565b60405180910390f35b610275610526565b005b610291600480360381019061028c91906115da565b61053a565b005b61029b61055a565b005b6102a5610738565b6040516102b2919061176d565b60405180910390f35b6102c3610762565b6040516102d0919061151f565b60405180910390f35b6102f360048036038101906102ee91906115da565b6107f4565b6040516103009190611635565b60405180910390f35b610323600480360381019061031e91906115da565b61086b565b6040516103309190611635565b60405180910390f35b610353600480360381019061034e9190611788565b61088e565b604051610360919061165f565b60405180910390f35b610383600480360381019061037e9190611731565b610915565b005b606060368054610394906117f7565b80601f01602080910402602001604051908101604052809291908181526020018280546103c0906117f7565b801561040d5780601f106103e25761010080835404028352916020019161040d565b820191906000526020600020905b8154815290600101906020018083116103f057829003601f168201915b5050505050905090565b600080610422610998565b905061042f8185856109a0565b600191505092915050565b6000603554905090565b60008061044f610998565b905061045c858285610b69565b610467858585610bf5565b60019150509392505050565b60006012905090565b600080610487610998565b90506104a8818585610499858961088e565b6104a39190611857565b6109a0565b600191505092915050565b6104bb610e6e565b6104c58282610eec565b5050565b6104da6104d4610998565b82611043565b50565b6000603360008373ffffffffffffffffffffffffffffffffffffffff1673ffffffffffffffffffffffffffffffffffffffff168152602001908152602001600020549050919050565b61052e610e6e565b6105386000611212565b565b61054c82610546610998565b83610b69565b6105568282611043565b5050565b60008060019054906101000a900460ff1615905080801561058b5750600160008054906101000a900460ff1660ff16105b806105b8575061059a306112d8565b1580156105b75750600160008054906101000a900460ff1660ff16145b5b6105f7576040517f08c379a00000000000000000000000000000000000000000000000000000000081526004016105ee906118fd565b60405180910390fd5b60016000806101000a81548160ff021916908360ff1602179055508015610634576001600060016101000a81548160ff0219169083151502179055505b6106a86040518060400160405280600a81526020017f5265644469616d6f6e64000000000000000000000000000000000000000000008152506040518060400160405280600381526020017f52454400000000000000000000000000000000000000000000000000000000008152506112fb565b6106b0611358565b6106dc336106bc610473565b600a6106c89190611a50565b6305f5e1006106d79190611a9b565b610eec565b80156107355760008060016101000a81548160ff0219169083151502179055507f7f26b83ff96e1f2b6a682f133852f6798a09c465da95921460cefb3847402498600160405161072c9190611b22565b60405180910390a15b50565b6000609760009054906101000a900473ffffffffffffffffffffffffffffffffffffffff16905090565b606060378054610771906117f7565b80601f016020809104026020016040519081016040528092919081815260200182805461079d906117f7565b80156107ea5780601f106107bf576101008083540402835291602001916107ea565b820191906000526020600020905b8154815290600101906020018083116107cd57829003601f168201915b5050505050905090565b6000806107ff610998565b9050600061080d828661088e565b905083811015610852576040517f08c379a000000000000000000000000000000000000000000000000000000000815260040161084990611baf565b60405180910390fd5b61085f82868684036109a0565b60019250505092915050565b600080610876610998565b9050610883818585610bf5565b600191505092915050565b6000603460008473ffffffffffffffffffffffffffffffffffffffff1673ffffffffffffffffffffffffffffffffffffffff16815260200190815260200160002060008373ffffffffffffffffffffffffffffffffffffffff1673ffffffffffffffffffffffffffffffffffffffff16815260200190815260200160002054905092915050565b61091d610e6e565b600073ffffffffffffffffffffffffffffffffffffffff168173ffffffffffffffffffffffffffffffffffffffff160361098c576040517f08c379a000000000000000000000000000000000000000000000000000000000815260040161098390611c41565b60405180910390fd5b61099581611212565b50565b600033905090565b600073ffffffffffffffffffffffffffffffffffffffff168373ffffffffffffffffffffffffffffffffffffffff1603610a0f576040517f08c379a0000000000000000000000000000000000000000000000000000000008152600401610a0690611cd3565b60405180910390fd5b600073ffffffffffffffffffffffffffffffffffffffff168273ffffffffffffffffffffffffffffffffffffffff1603610a7e576040517f08c379a0000000000000000000000000000000000000000000000000000000008152600401610a7590611d65565b60405180910390fd5b80603460008573ffffffffffffffffffffffffffffffffffffffff1673ffffffffffffffffffffffffffffffffffffffff16815260200190815260200160002060008473ffffffffffffffffffffffffffffffffffffffff1673ffffffffffffffffffffffffffffffffffffffff168152602001908152602001600020819055508173ffffffffffffffffffffffffffffffffffffffff168373ffffffffffffffffffffffffffffffffffffffff167f8c5be1e5ebec7d5bd14f71427d1e84f3dd0314c0f7b2291e5b200ac8c7c3b92583604051610b5c919061165f565b60405180910390a3505050565b6000610b75848461088e565b90507fffffffffffffffffffffffffffffffffffffffffffffffffffffffffffffffff8114610bef5781811015610be1576040517f08c379a0000000000000000000000000000000000000000000000000000000008152600401610bd890611dd1565b60405180910390fd5b610bee84848484036109a0565b5b50505050565b600073ffffffffffffffffffffffffffffffffffffffff168373ffffffffffffffffffffffffffffffffffffffff1603610c64576040517f08c379a0000000000000000000000000000000000000000000000000000000008152600401610c5b90611e63565b60405180910390fd5b600073ffffffffffffffffffffffffffffffffffffffff168273ffffffffffffffffffffffffffffffffffffffff1603610cd3576040517f08c379a0000000000000000000000000000000000000000000000000000000008152600401610cca90611ef5565b60405180910390fd5b610cde8383836113b1565b6000603360008573ffffffffffffffffffffffffffffffffffffffff1673ffffffffffffffffffffffffffffffffffffffff16815260200190815260200160002054905081811015610d65576040517f08c379a0000000000000000000000000000000000000000000000000000000008152600401610d5c90611f87565b60405180910390fd5b818103603360008673ffffffffffffffffffffffffffffffffffffffff1673ffffffffffffffffffffffffffffffffffffffff1681526020019081526020016000208190555081603360008573ffffffffffffffffffffffffffffffffffffffff1673ffffffffffffffffffffffffffffffffffffffff168152602001908152602001600020600082825401925050819055508273ffffffffffffffffffffffffffffffffffffffff168473ffffffffffffffffffffffffffffffffffffffff167fddf252ad1be2c89b69c2b068fc378daa952ba7f163c4a11628f55a4df523b3ef84604051610e55919061165f565b60405180910390a3610e688484846113b6565b50505050565b610e76610998565b73ffffffffffffffffffffffffffffffffffffffff16610e94610738565b73ffffffffffffffffffffffffffffffffffffffff1614610eea576040517f08c379a0000000000000000000000000000000000000000000000000000000008152600401610ee190611ff3565b60405180910390fd5b565b600073ffffffffffffffffffffffffffffffffffffffff168273ffffffffffffffffffffffffffffffffffffffff1603610f5b576040517f08c379a0000000000000000000000000000000000000000000000000000000008152600401610f529061205f565b60405180910390fd5b610f67600083836113b1565b8060356000828254610f799190611857565b9250508190555080603360008473ffffffffffffffffffffffffffffffffffffffff1673ffffffffffffffffffffffffffffffffffffffff168152602001908152602001600020600082825401925050819055508173ffffffffffffffffffffffffffffffffffffffff16600073ffffffffffffffffffffffffffffffffffffffff167fddf252ad1be2c89b69c2b068fc378daa952ba7f163c4a11628f55a4df523b3ef8360405161102b919061165f565b60405180910390a361103f600083836113b6565b5050565b600073ffffffffffffffffffffffffffffffffffffffff168273ffffffffffffffffffffffffffffffffffffffff16036110b2576040517f08c379a00000000000000000000000000000000000000000000000000000000081526004016110a9906120f1565b60405180910390fd5b6110be826000836113b1565b6000603360008473ffffffffffffffffffffffffffffffffffffffff1673ffffffffffffffffffffffffffffffffffffffff16815260200190815260200160002054905081811015611145576040517f08c379a000000000000000000000000000000000000000000000000000000000815260040161113c90612183565b60405180910390fd5b818103603360008573ffffffffffffffffffffffffffffffffffffffff1673ffffffffffffffffffffffffffffffffffffffff1681526020019081526020016000208190555081603560008282540392505081905550600073ffffffffffffffffffffffffffffffffffffffff168373ffffffffffffffffffffffffffffffffffffffff167fddf252ad1be2c89b69c2b068fc378daa952ba7f163c4a11628f55a4df523b3ef846040516111f9919061165f565b60405180910390a361120d836000846113b6565b505050565b6000609760009054906101000a900473ffffffffffffffffffffffffffffffffffffffff16905081609760006101000a81548173ffffffffffffffffffffffffffffffffffffffff021916908373ffffffffffffffffffffffffffffffffffffffff1602179055508173ffffffffffffffffffffffffffffffffffffffff168173ffffffffffffffffffffffffffffffffffffffff167f8be0079c531659141344cd1fd0a4f28419497f9722a3daafe3b4186f6b6457e060405160405180910390a35050565b6000808273ffffffffffffffffffffffffffffffffffffffff163b119050919050565b600060019054906101000a900460ff1661134a576040517f08c379a000000000000000000000000000000000000000000000000000000000815260040161134190612215565b60405180910390fd5b61135482826113bb565b5050565b600060019054906101000a900460ff166113a7576040517f08c379a000000000000000000000000000000000000000000000000000000000815260040161139e90612215565b60405180910390fd5b6113af61142e565b565b505050565b505050565b600060019054906101000a900460ff1661140a576040517f08c379a000000000000000000000000000000000000000000000000000000000815260040161140190612215565b60405180910390fd5b81603690816114199190612406565b5080603790816114299190612406565b505050565b600060019054906101000a900460ff1661147d576040517f08c379a000000000000000000000000000000000000000000000000000000000815260040161147490612215565b60405180910390fd5b61148d611488610998565b611212565b565b600081519050919050565b600082825260208201905092915050565b60005b838110156114c95780820151818401526020810190506114ae565b60008484015250505050565b6000601f19601f8301169050919050565b60006114f18261148f565b6114fb818561149a565b935061150b8185602086016114ab565b611514816114d5565b840191505092915050565b6000602082019050818103600083015261153981846114e6565b905092915050565b600080fd5b600073ffffffffffffffffffffffffffffffffffffffff82169050919050565b600061157182611546565b9050919050565b61158181611566565b811461158c57600080fd5b50565b60008135905061159e81611578565b92915050565b6000819050919050565b6115b7816115a4565b81146115c257600080fd5b50565b6000813590506115d4816115ae565b92915050565b600080604083850312156115f1576115f0611541565b5b60006115ff8582860161158f565b9250506020611610858286016115c5565b9150509250929050565b60008115159050919050565b61162f8161161a565b82525050565b600060208201905061164a6000830184611626565b92915050565b611659816115a4565b82525050565b60006020820190506116746000830184611650565b92915050565b60008060006060848603121561169357611692611541565b5b60006116a18682870161158f565b93505060206116b28682870161158f565b92505060406116c3868287016115c5565b9150509250925092565b600060ff82169050919050565b6116e3816116cd565b82525050565b60006020820190506116fe60008301846116da565b92915050565b60006020828403121561171a57611719611541565b5b6000611728848285016115c5565b91505092915050565b60006020828403121561174757611746611541565b5b60006117558482850161158f565b91505092915050565b61176781611566565b82525050565b6000602082019050611782600083018461175e565b92915050565b6000806040838503121561179f5761179e611541565b5b60006117ad8582860161158f565b92505060206117be8582860161158f565b9150509250929050565b7f4e487b7100000000000000000000000000000000000000000000000000000000600052602260045260246000fd5b6000600282049050600182168061180f57607f821691505b602082108103611822576118216117c8565b5b50919050565b7f4e487b7100000000000000000000000000000000000000000000000000000000600052601160045260246000fd5b6000611862826115a4565b915061186d836115a4565b925082820190508082111561188557611884611828565b5b92915050565b7f496e697469616c697a61626c653a20636f6e747261637420697320616c72656160008201527f647920696e697469616c697a6564000000000000000000000000000000000000602082015250565b60006118e7602e8361149a565b91506118f28261188b565b604082019050919050565b60006020820190508181036000830152611916816118da565b9050919050565b60008160011c9050919050565b6000808291508390505b6001851115611974578086048111156119505761194f611828565b5b600185161561195f5780820291505b808102905061196d8561191d565b9450611934565b94509492505050565b60008261198d5760019050611a49565b8161199b5760009050611a49565b81600181146119b157600281146119bb576119ea565b6001915050611a49565b60ff8411156119cd576119cc611828565b5b8360020a9150848211156119e4576119e3611828565b5b50611a49565b5060208310610133831016604e8410600b8410161715611a1f5782820a905083811115611a1a57611a19611828565b5b611a49565b611a2c848484600161192a565b92509050818404811115611a4357611a42611828565b5b81810290505b9392505050565b6000611a5b826115a4565b9150611a66836116cd565b9250611a937fffffffffffffffffffffffffffffffffffffffffffffffffffffffffffffffff848461197d565b905092915050565b6000611aa6826115a4565b9150611ab1836115a4565b9250828202611abf816115a4565b91508282048414831517611ad657611ad5611828565b5b5092915050565b6000819050919050565b6000819050919050565b6000611b0c611b07611b0284611add565b611ae7565b6116cd565b9050919050565b611b1c81611af1565b82525050565b6000602082019050611b376000830184611b13565b92915050565b7f45524332303a2064656372656173656420616c6c6f77616e63652062656c6f7760008201527f207a65726f000000000000000000000000000000000000000000000000000000602082015250565b6000611b9960258361149a565b9150611ba482611b3d565b604082019050919050565b60006020820190508181036000830152611bc881611b8c565b9050919050565b7f4f776e61626c653a206e6577206f776e657220697320746865207a65726f206160008201527f6464726573730000000000000000000000000000000000000000000000000000602082015250565b6000611c2b60268361149a565b9150611c3682611bcf565b604082019050919050565b60006020820190508181036000830152611c5a81611c1e565b9050919050565b7f45524332303a20617070726f76652066726f6d20746865207a65726f2061646460008201527f7265737300000000000000000000000000000000000000000000000000000000602082015250565b6000611cbd60248361149a565b9150611cc882611c61565b604082019050919050565b60006020820190508181036000830152611cec81611cb0565b9050919050565b7f45524332303a20617070726f766520746f20746865207a65726f20616464726560008201527f7373000000000000000000000000000000000000000000000000000000000000602082015250565b6000611d4f60228361149a565b9150611d5a82611cf3565b604082019050919050565b60006020820190508181036000830152611d7e81611d42565b9050919050565b7f45524332303a20696e73756666696369656e7420616c6c6f77616e6365000000600082015250565b6000611dbb601d8361149a565b9150611dc682611d85565b602082019050919050565b60006020820190508181036000830152611dea81611dae565b9050919050565b7f45524332303a207472616e736665722066726f6d20746865207a65726f20616460008201527f6472657373000000000000000000000000000000000000000000000000000000602082015250565b6000611e4d60258361149a565b9150611e5882611df1565b604082019050919050565b60006020820190508181036000830152611e7c81611e40565b9050919050565b7f45524332303a207472616e7366657220746f20746865207a65726f206164647260008201527f6573730000000000000000000000000000000000000000000000000000000000602082015250565b6000611edf60238361149a565b9150611eea82611e83565b604082019050919050565b60006020820190508181036000830152611f0e81611ed2565b9050919050565b7f45524332303a207472616e7366657220616d6f756e742065786365656473206260008201527f616c616e63650000000000000000000000000000000000000000000000000000602082015250565b6000611f7160268361149a565b9150611f7c82611f15565b604082019050919050565b60006020820190508181036000830152611fa081611f64565b9050919050565b7f4f776e61626c653a2063616c6c6572206973206e6f7420746865206f776e6572600082015250565b6000611fdd60208361149a565b9150611fe882611fa7565b602082019050919050565b6000602082019050818103600083015261200c81611fd0565b9050919050565b7f45524332303a206d696e7420746f20746865207a65726f206164647265737300600082015250565b6000612049601f8361149a565b915061205482612013565b602082019050919050565b600060208201905081810360008301526120788161203c565b9050919050565b7f45524332303a206275726e2066726f6d20746865207a65726f2061646472657360008201527f7300000000000000000000000000000000000000000000000000000000000000602082015250565b60006120db60218361149a565b91506120e68261207f565b604082019050919050565b6000602082019050818103600083015261210a816120ce565b9050919050565b7f45524332303a206275726e20616d6f756e7420657863656564732062616c616e60008201527f6365000000000000000000000000000000000000000000000000000000000000602082015250565b600061216d60228361149a565b915061217882612111565b604082019050919050565b6000602082019050818103600083015261219c81612160565b9050919050565b7f496e697469616c697a61626c653a20636f6e7472616374206973206e6f74206960008201527f6e697469616c697a696e67000000000000000000000000000000000000000000602082015250565b60006121ff602b8361149a565b915061220a826121a3565b604082019050919050565b6000602082019050818103600083015261222e816121f2565b9050919050565b7f4e487b7100000000000000000000000000000000000000000000000000000000600052604160045260246000fd5b60008190508160005260206000209050919050565b60006020601f8301049050919050565b600082821b905092915050565b6000600883026122c67fffffffffffffffffffffffffffffffffffffffffffffffffffffffffffffffff82612289565b6122d08683612289565b95508019841693508086168417925050509392505050565b60006123036122fe6122f9846115a4565b611ae7565b6115a4565b9050919050565b6000819050919050565b61231d836122e8565b6123316123298261230a565b848454612296565b825550505050565b600090565b612346612339565b612351818484612314565b505050565b5b818110156123755761236a60008261233e565b600181019050612357565b5050565b601f8211156123ba5761238b81612264565b61239484612279565b810160208510156123a3578190505b6123b76123af85612279565b830182612356565b50505b505050565b600082821c905092915050565b60006123dd600019846008026123bf565b1980831691505092915050565b60006123f683836123cc565b9150826002028217905092915050565b61240f8261148f565b67ffffffffffffffff81111561242857612427612235565b5b61243282546117f7565b61243d828285612379565b600060209050601f831160018114612470576000841561245e578287015190505b61246885826123ea565b8655506124d0565b601f19841661247e86612264565b60005b828110156124a657848901518255600182019150602085019450602081019050612481565b868310156124c357848901516124bf601f8916826123cc565b8355505b6001600288020188555050505b50505050505056fea2646970667358221220d1504a78faae871ccf44d4c4f0cc66414abed213cc6c4250f90feffad952d68764736f6c63430008120033",
  "linkReferences": {},
  "deployedLinkReferences": {}
}